{
  "_format": "hh-sol-artifact-1",
  "contractName": "NFT2",
  "sourceName": "contracts/NFT2.sol",
  "abi": [
    {
      "inputs": [
        {
          "internalType": "address",
          "name": "_nftMarketContract",
          "type": "address"
        }
      ],
      "stateMutability": "nonpayable",
      "type": "constructor"
    },
    {
      "anonymous": false,
      "inputs": [
        {
          "indexed": true,
          "internalType": "address",
          "name": "owner",
          "type": "address"
        },
        {
          "indexed": true,
          "internalType": "address",
          "name": "approved",
          "type": "address"
        },
        {
          "indexed": true,
          "internalType": "uint256",
          "name": "tokenId",
          "type": "uint256"
        }
      ],
      "name": "Approval",
      "type": "event"
    },
    {
      "anonymous": false,
      "inputs": [
        {
          "indexed": true,
          "internalType": "address",
          "name": "owner",
          "type": "address"
        },
        {
          "indexed": true,
          "internalType": "address",
          "name": "operator",
          "type": "address"
        },
        {
          "indexed": false,
          "internalType": "bool",
          "name": "approved",
          "type": "bool"
        }
      ],
      "name": "ApprovalForAll",
      "type": "event"
    },
    {
      "anonymous": false,
      "inputs": [
        {
          "indexed": false,
          "internalType": "address",
          "name": "minter",
          "type": "address"
        },
        {
          "indexed": false,
          "internalType": "uint256",
          "name": "tokenId",
          "type": "uint256"
        }
      ],
      "name": "NftMinted",
      "type": "event"
    },
    {
      "anonymous": false,
      "inputs": [
        {
          "indexed": true,
          "internalType": "address",
          "name": "from",
          "type": "address"
        },
        {
          "indexed": true,
          "internalType": "address",
          "name": "to",
          "type": "address"
        },
        {
          "indexed": true,
          "internalType": "uint256",
          "name": "tokenId",
          "type": "uint256"
        }
      ],
      "name": "Transfer",
      "type": "event"
    },
    {
      "inputs": [
        {
          "internalType": "address",
          "name": "to",
          "type": "address"
        },
        {
          "internalType": "uint256",
          "name": "tokenId",
          "type": "uint256"
        }
      ],
      "name": "approve",
      "outputs": [],
      "stateMutability": "nonpayable",
      "type": "function"
    },
    {
      "inputs": [
        {
          "internalType": "address",
          "name": "owner",
          "type": "address"
        }
      ],
      "name": "balanceOf",
      "outputs": [
        {
          "internalType": "uint256",
          "name": "",
          "type": "uint256"
        }
      ],
      "stateMutability": "view",
      "type": "function"
    },
    {
      "inputs": [
        {
          "internalType": "uint256",
          "name": "tokenId",
          "type": "uint256"
        }
      ],
      "name": "getApproved",
      "outputs": [
        {
          "internalType": "address",
          "name": "",
          "type": "address"
        }
      ],
      "stateMutability": "view",
      "type": "function"
    },
    {
      "inputs": [
        {
          "internalType": "address",
          "name": "owner",
          "type": "address"
        },
        {
          "internalType": "address",
          "name": "operator",
          "type": "address"
        }
      ],
      "name": "isApprovedForAll",
      "outputs": [
        {
          "internalType": "bool",
          "name": "",
          "type": "bool"
        }
      ],
      "stateMutability": "view",
      "type": "function"
    },
    {
      "inputs": [],
      "name": "mintFTR",
      "outputs": [],
      "stateMutability": "nonpayable",
      "type": "function"
    },
    {
      "inputs": [],
      "name": "name",
      "outputs": [
        {
          "internalType": "string",
          "name": "",
          "type": "string"
        }
      ],
      "stateMutability": "view",
      "type": "function"
    },
    {
      "inputs": [
        {
          "internalType": "uint256",
          "name": "tokenId",
          "type": "uint256"
        }
      ],
      "name": "ownerOf",
      "outputs": [
        {
          "internalType": "address",
          "name": "",
          "type": "address"
        }
      ],
      "stateMutability": "view",
      "type": "function"
    },
    {
      "inputs": [
        {
          "internalType": "uint256",
          "name": "tokenId",
          "type": "uint256"
        }
      ],
      "name": "pickRandomCityWord",
      "outputs": [
        {
          "internalType": "string",
          "name": "",
          "type": "string"
        }
      ],
      "stateMutability": "view",
      "type": "function"
    },
    {
      "inputs": [
        {
          "internalType": "uint256",
          "name": "tokenId",
          "type": "uint256"
        }
      ],
      "name": "pickRandomJobWord",
      "outputs": [
        {
          "internalType": "string",
          "name": "",
          "type": "string"
        }
      ],
      "stateMutability": "view",
      "type": "function"
    },
    {
      "inputs": [
        {
          "internalType": "uint256",
          "name": "tokenId",
          "type": "uint256"
        }
      ],
      "name": "pickRandomSocialWord",
      "outputs": [
        {
          "internalType": "string",
          "name": "",
          "type": "string"
        }
      ],
      "stateMutability": "view",
      "type": "function"
    },
    {
      "inputs": [
        {
          "internalType": "address",
          "name": "from",
          "type": "address"
        },
        {
          "internalType": "address",
          "name": "to",
          "type": "address"
        },
        {
          "internalType": "uint256",
          "name": "tokenId",
          "type": "uint256"
        }
      ],
      "name": "safeTransferFrom",
      "outputs": [],
      "stateMutability": "nonpayable",
      "type": "function"
    },
    {
      "inputs": [
        {
          "internalType": "address",
          "name": "from",
          "type": "address"
        },
        {
          "internalType": "address",
          "name": "to",
          "type": "address"
        },
        {
          "internalType": "uint256",
          "name": "tokenId",
          "type": "uint256"
        },
        {
          "internalType": "bytes",
          "name": "data",
          "type": "bytes"
        }
      ],
      "name": "safeTransferFrom",
      "outputs": [],
      "stateMutability": "nonpayable",
      "type": "function"
    },
    {
      "inputs": [
        {
          "internalType": "address",
          "name": "operator",
          "type": "address"
        },
        {
          "internalType": "bool",
          "name": "approved",
          "type": "bool"
        }
      ],
      "name": "setApprovalForAll",
      "outputs": [],
      "stateMutability": "nonpayable",
      "type": "function"
    },
    {
      "inputs": [
        {
          "internalType": "bytes4",
          "name": "interfaceId",
          "type": "bytes4"
        }
      ],
      "name": "supportsInterface",
      "outputs": [
        {
          "internalType": "bool",
          "name": "",
          "type": "bool"
        }
      ],
      "stateMutability": "view",
      "type": "function"
    },
    {
      "inputs": [],
      "name": "symbol",
      "outputs": [
        {
          "internalType": "string",
          "name": "",
          "type": "string"
        }
      ],
      "stateMutability": "view",
      "type": "function"
    },
    {
      "inputs": [
        {
          "internalType": "uint256",
          "name": "tokenId",
          "type": "uint256"
        }
      ],
      "name": "tokenURI",
      "outputs": [
        {
          "internalType": "string",
          "name": "",
          "type": "string"
        }
      ],
      "stateMutability": "view",
      "type": "function"
    },
    {
      "inputs": [
        {
          "internalType": "address",
          "name": "from",
          "type": "address"
        },
        {
          "internalType": "address",
          "name": "to",
          "type": "address"
        },
        {
          "internalType": "uint256",
          "name": "tokenId",
          "type": "uint256"
        }
      ],
      "name": "transferFrom",
      "outputs": [],
      "stateMutability": "nonpayable",
      "type": "function"
    }
  ],
  "bytecode": "0x608060405260405180610160016040528061012f815260200162003ceb61012f913960099080519060200190620000389291906200067f565b506040518060e001604052806040518060400160405280600c81526020017f4c6f7320416e67656c657320000000000000000000000000000000000000000081525081526020016040518060400160405280600c81526020017f4d657869636f204369747920000000000000000000000000000000000000000081525081526020016040518060400160405280600981526020017f4d6564656c6c696e20000000000000000000000000000000000000000000000081525081526020016040518060400160405280600a81526020017f42617263656c6f6e61200000000000000000000000000000000000000000000081525081526020016040518060400160405280600681526020017f4d69616d6920000000000000000000000000000000000000000000000000000081525081526020016040518060400160405280600d81526020017f4275656e6f73204169726573200000000000000000000000000000000000000081525081526020016040518060400160405280600781526020017f4c6f6e646f6e2000000000000000000000000000000000000000000000000000815250815250600a906007620001f192919062000710565b506040518060e001604052806040518060400160405280600b81526020017f467265656c616e6365722000000000000000000000000000000000000000000081525081526020016040518060400160405280600781526020017f44414f697374200000000000000000000000000000000000000000000000000081525081526020016040518060400160405280600a81526020017f416e61726368697374200000000000000000000000000000000000000000000081525081526020016040518060400160405280600f81526020017f436f72706f72617465205375697420000000000000000000000000000000000081525081526020016040518060400160405280600881526020017f466f756e6465722000000000000000000000000000000000000000000000000081525081526020016040518060400160405280600d81526020017f496e74656c6c65637475616c200000000000000000000000000000000000000081525081526020016040518060400160405280600881526020017f44726f706f757420000000000000000000000000000000000000000000000000815250815250600b906007620003aa92919062000710565b506040518060e001604052806040518060400160405280600b81526020017f5075626c696320476f6f6400000000000000000000000000000000000000000081525081526020016040518060400160405280601081526020017f5072697661746520496e7465726573740000000000000000000000000000000081525081526020016040518060400160405280601681526020017f436f6c6c65637469766520536f7665726569676e74790000000000000000000081525081526020016040518060400160405280601881526020017f4e656f6c69626572616c20496e646976696475616c69736d000000000000000081525081526020016040518060400160405280601281526020017f45636f6c6f676963616c20456e74726f7079000000000000000000000000000081525081526020016040518060400160405280601281526020017f4f7277656c6c69616e20447973746f706961000000000000000000000000000081525081526020016040518060400160405280601081526020017f43727970746f2044656d6f637261637900000000000000000000000000000000815250815250600c9060076200056392919062000710565b503480156200057157600080fd5b5060405162003e1a38038062003e1a83398181016040528101906200059791906200086e565b6040518060400160405280600681526020017f46757475726f00000000000000000000000000000000000000000000000000008152506040518060400160405280600381526020017f465452000000000000000000000000000000000000000000000000000000000081525081600090805190602001906200061b9291906200067f565b508060019080519060200190620006349291906200067f565b50505080600860006101000a81548173ffffffffffffffffffffffffffffffffffffffff021916908373ffffffffffffffffffffffffffffffffffffffff1602179055505062000905565b8280546200068d90620008cf565b90600052602060002090601f016020900481019282620006b15760008555620006fd565b82601f10620006cc57805160ff1916838001178555620006fd565b82800160010185558215620006fd579182015b82811115620006fc578251825591602001919060010190620006df565b5b5090506200070c919062000777565b5090565b82805482825590600052602060002090810192821562000764579160200282015b8281111562000763578251829080519060200190620007529291906200067f565b509160200191906001019062000731565b5b50905062000773919062000796565b5090565b5b808211156200079257600081600090555060010162000778565b5090565b5b80821115620007ba5760008181620007b09190620007be565b5060010162000797565b5090565b508054620007cc90620008cf565b6000825580601f10620007e0575062000801565b601f01602090049060005260206000209081019062000800919062000777565b5b50565b600080fd5b600073ffffffffffffffffffffffffffffffffffffffff82169050919050565b6000620008368262000809565b9050919050565b620008488162000829565b81146200085457600080fd5b50565b60008151905062000868816200083d565b92915050565b60006020828403121562000887576200088662000804565b5b6000620008978482850162000857565b91505092915050565b7f4e487b7100000000000000000000000000000000000000000000000000000000600052602260045260246000fd5b60006002820490506001821680620008e857607f821691505b60208210811415620008ff57620008fe620008a0565b5b50919050565b6133d680620009156000396000f3fe608060405234801561001057600080fd5b506004361061010b5760003560e01c80636352211e116100a257806395d89b411161007157806395d89b41146102dc578063a22cb465146102fa578063b88d4fde14610316578063c87b56dd14610332578063e985e9c5146103625761010b565b80636352211e1461021c57806370a082311461024c57806387d52a9a1461027c57806389ec776a146102ac5761010b565b806323b872dd116100de57806323b872dd146101aa57806342842e0e146101c657806345426dde146101e25780634d971557146102125761010b565b806301ffc9a71461011057806306fdde0314610140578063081812fc1461015e578063095ea7b31461018e575b600080fd5b61012a60048036038101906101259190611f36565b610392565b6040516101379190611f7e565b60405180910390f35b610148610474565b6040516101559190612032565b60405180910390f35b6101786004803603810190610173919061208a565b610506565b60405161018591906120f8565b60405180910390f35b6101a860048036038101906101a3919061213f565b61054c565b005b6101c460048036038101906101bf919061217f565b610664565b005b6101e060048036038101906101db919061217f565b6106c4565b005b6101fc60048036038101906101f7919061208a565b6106e4565b6040516102099190612032565b60405180910390f35b61021a6107dc565b005b6102366004803603810190610231919061208a565b61091b565b60405161024391906120f8565b60405180910390f35b610266600480360381019061026191906121d2565b6109cd565b604051610273919061220e565b60405180910390f35b6102966004803603810190610291919061208a565b610a85565b6040516102a39190612032565b60405180910390f35b6102c660048036038101906102c1919061208a565b610b7d565b6040516102d39190612032565b60405180910390f35b6102e4610c75565b6040516102f19190612032565b60405180910390f35b610314600480360381019061030f9190612255565b610d07565b005b610330600480360381019061032b91906123ca565b610d1d565b005b61034c6004803603810190610347919061208a565b610d7f565b6040516103599190612032565b60405180910390f35b61037c6004803603810190610377919061244d565b610e92565b6040516103899190611f7e565b60405180910390f35b60007f80ac58cd000000000000000000000000000000000000000000000000000000007bffffffffffffffffffffffffffffffffffffffffffffffffffffffff1916827bffffffffffffffffffffffffffffffffffffffffffffffffffffffff1916148061045d57507f5b5e139f000000000000000000000000000000000000000000000000000000007bffffffffffffffffffffffffffffffffffffffffffffffffffffffff1916827bffffffffffffffffffffffffffffffffffffffffffffffffffffffff1916145b8061046d575061046c82610f26565b5b9050919050565b606060008054610483906124bc565b80601f01602080910402602001604051908101604052809291908181526020018280546104af906124bc565b80156104fc5780601f106104d1576101008083540402835291602001916104fc565b820191906000526020600020905b8154815290600101906020018083116104df57829003601f168201915b5050505050905090565b600061051182610f90565b6004600083815260200190815260200160002060009054906101000a900473ffffffffffffffffffffffffffffffffffffffff169050919050565b60006105578261091b565b90508073ffffffffffffffffffffffffffffffffffffffff168373ffffffffffffffffffffffffffffffffffffffff1614156105c8576040517f08c379a00000000000000000000000000000000000000000000000000000000081526004016105bf90612560565b60405180910390fd5b8073ffffffffffffffffffffffffffffffffffffffff166105e7610fdb565b73ffffffffffffffffffffffffffffffffffffffff161480610616575061061581610610610fdb565b610e92565b5b610655576040517f08c379a000000000000000000000000000000000000000000000000000000000815260040161064c906125f2565b60405180910390fd5b61065f8383610fe3565b505050565b61067561066f610fdb565b8261109c565b6106b4576040517f08c379a00000000000000000000000000000000000000000000000000000000081526004016106ab90612684565b60405180910390fd5b6106bf838383611131565b505050565b6106df83838360405180602001604052806000815250610d1d565b505050565b606060006107186106f484611398565b604051602001610704919061272c565b6040516020818303038152906040526114f9565b9050600a805490508161072b919061277d565b9050600a8181548110610741576107406127ae565b5b906000526020600020018054610756906124bc565b80601f0160208091040260200160405190810160405280929190818152602001828054610782906124bc565b80156107cf5780601f106107a4576101008083540402835291602001916107cf565b820191906000526020600020905b8154815290600101906020018083116107b257829003601f168201915b5050505050915050919050565b60006107e8600761152c565b905060006107f5826106e4565b9050600061080283610a85565b9050600061080f84610b7d565b90506000838383604051602001610828939291906127dd565b6040516020818303038152906040529050600060098260405160200161084f9291906128ee565b604051602081830303815290604052905060006108948361086f8461153a565b604051602001610880929190612a73565b60405160208183030381529060405261153a565b90506000816040516020016108a99190612b04565b60405160208183030381529060405290507ff2b290a76feb54be358b555507421d765609171aefa0646f109a653228ff81b833896040516108eb929190612b26565b60405180910390a16108fd33896116d2565b61090788826116f0565b6109116007611764565b5050505050505050565b6000806002600084815260200190815260200160002060009054906101000a900473ffffffffffffffffffffffffffffffffffffffff169050600073ffffffffffffffffffffffffffffffffffffffff168173ffffffffffffffffffffffffffffffffffffffff1614156109c4576040517f08c379a00000000000000000000000000000000000000000000000000000000081526004016109bb90612b9b565b60405180910390fd5b80915050919050565b60008073ffffffffffffffffffffffffffffffffffffffff168273ffffffffffffffffffffffffffffffffffffffff161415610a3e576040517f08c379a0000000000000000000000000000000000000000000000000000000008152600401610a3590612c2d565b60405180910390fd5b600360008373ffffffffffffffffffffffffffffffffffffffff1673ffffffffffffffffffffffffffffffffffffffff168152602001908152602001600020549050919050565b60606000610ab9610a9584611398565b604051602001610aa59190612c99565b6040516020818303038152906040526114f9565b9050600b8054905081610acc919061277d565b9050600b8181548110610ae257610ae16127ae565b5b906000526020600020018054610af7906124bc565b80601f0160208091040260200160405190810160405280929190818152602001828054610b23906124bc565b8015610b705780601f10610b4557610100808354040283529160200191610b70565b820191906000526020600020905b815481529060010190602001808311610b5357829003601f168201915b5050505050915050919050565b60606000610bb1610b8d84611398565b604051602001610b9d9190612d07565b6040516020818303038152906040526114f9565b9050600c8054905081610bc4919061277d565b9050600c8181548110610bda57610bd96127ae565b5b906000526020600020018054610bef906124bc565b80601f0160208091040260200160405190810160405280929190818152602001828054610c1b906124bc565b8015610c685780601f10610c3d57610100808354040283529160200191610c68565b820191906000526020600020905b815481529060010190602001808311610c4b57829003601f168201915b5050505050915050919050565b606060018054610c84906124bc565b80601f0160208091040260200160405190810160405280929190818152602001828054610cb0906124bc565b8015610cfd5780601f10610cd257610100808354040283529160200191610cfd565b820191906000526020600020905b815481529060010190602001808311610ce057829003601f168201915b5050505050905090565b610d19610d12610fdb565b838361177a565b5050565b610d2e610d28610fdb565b8361109c565b610d6d576040517f08c379a0000000000000000000000000000000000000000000000000000000008152600401610d6490612684565b60405180910390fd5b610d79848484846118e7565b50505050565b6060610d8a82610f90565b6000600660008481526020019081526020016000208054610daa906124bc565b80601f0160208091040260200160405190810160405280929190818152602001828054610dd6906124bc565b8015610e235780601f10610df857610100808354040283529160200191610e23565b820191906000526020600020905b815481529060010190602001808311610e0657829003601f168201915b505050505090506000610e34611943565b9050600081511415610e4a578192505050610e8d565b600082511115610e7f578082604051602001610e67929190612d29565b60405160208183030381529060405292505050610e8d565b610e888461195a565b925050505b919050565b6000600560008473ffffffffffffffffffffffffffffffffffffffff1673ffffffffffffffffffffffffffffffffffffffff16815260200190815260200160002060008373ffffffffffffffffffffffffffffffffffffffff1673ffffffffffffffffffffffffffffffffffffffff16815260200190815260200160002060009054906101000a900460ff16905092915050565b60007f01ffc9a7000000000000000000000000000000000000000000000000000000007bffffffffffffffffffffffffffffffffffffffffffffffffffffffff1916827bffffffffffffffffffffffffffffffffffffffffffffffffffffffff1916149050919050565b610f99816119c2565b610fd8576040517f08c379a0000000000000000000000000000000000000000000000000000000008152600401610fcf90612b9b565b60405180910390fd5b50565b600033905090565b816004600083815260200190815260200160002060006101000a81548173ffffffffffffffffffffffffffffffffffffffff021916908373ffffffffffffffffffffffffffffffffffffffff160217905550808273ffffffffffffffffffffffffffffffffffffffff166110568361091b565b73ffffffffffffffffffffffffffffffffffffffff167f8c5be1e5ebec7d5bd14f71427d1e84f3dd0314c0f7b2291e5b200ac8c7c3b92560405160405180910390a45050565b6000806110a88361091b565b90508073ffffffffffffffffffffffffffffffffffffffff168473ffffffffffffffffffffffffffffffffffffffff1614806110ea57506110e98185610e92565b5b8061112857508373ffffffffffffffffffffffffffffffffffffffff1661111084610506565b73ffffffffffffffffffffffffffffffffffffffff16145b91505092915050565b8273ffffffffffffffffffffffffffffffffffffffff166111518261091b565b73ffffffffffffffffffffffffffffffffffffffff16146111a7576040517f08c379a000000000000000000000000000000000000000000000000000000000815260040161119e90612dbf565b60405180910390fd5b600073ffffffffffffffffffffffffffffffffffffffff168273ffffffffffffffffffffffffffffffffffffffff161415611217576040517f08c379a000000000000000000000000000000000000000000000000000000000815260040161120e90612e51565b60405180910390fd5b611222838383611a2e565b61122d600082610fe3565b6001600360008573ffffffffffffffffffffffffffffffffffffffff1673ffffffffffffffffffffffffffffffffffffffff168152602001908152602001600020600082825461127d9190612ea0565b925050819055506001600360008473ffffffffffffffffffffffffffffffffffffffff1673ffffffffffffffffffffffffffffffffffffffff16815260200190815260200160002060008282546112d49190612ed4565b92505081905550816002600083815260200190815260200160002060006101000a81548173ffffffffffffffffffffffffffffffffffffffff021916908373ffffffffffffffffffffffffffffffffffffffff160217905550808273ffffffffffffffffffffffffffffffffffffffff168473ffffffffffffffffffffffffffffffffffffffff167fddf252ad1be2c89b69c2b068fc378daa952ba7f163c4a11628f55a4df523b3ef60405160405180910390a4611393838383611a33565b505050565b606060008214156113e0576040518060400160405280600181526020017f300000000000000000000000000000000000000000000000000000000000000081525090506114f4565b600082905060005b600082146114125780806113fb90612f2a565b915050600a8261140b9190612f73565b91506113e8565b60008167ffffffffffffffff81111561142e5761142d61229f565b5b6040519080825280601f01601f1916602001820160405280156114605781602001600182028036833780820191505090505b5090505b600085146114ed576001826114799190612ea0565b9150600a85611488919061277d565b60306114949190612ed4565b60f81b8183815181106114aa576114a96127ae565b5b60200101907effffffffffffffffffffffffffffffffffffffffffffffffffffffffffffff1916908160001a905350600a856114e69190612f73565b9450611464565b8093505050505b919050565b60008160405160200161150c9190612fa4565b6040516020818303038152906040528051906020012060001c9050919050565b600081600001549050919050565b6060600082519050600081141561156357604051806020016040528060008152509150506116cd565b600060036002836115749190612ed4565b61157e9190612f73565b600461158a9190612fbb565b9050600060208261159b9190612ed4565b67ffffffffffffffff8111156115b4576115b361229f565b5b6040519080825280601f01601f1916602001820160405280156115e65781602001600182028036833780820191505090505b5090506000604051806060016040528060408152602001613361604091399050600181016020830160005b8681101561168a5760038101905062ffffff818a015116603f8160121c168401518060081b905060ff603f83600c1c1686015116810190508060081b905060ff603f8360061c1686015116810190508060081b905060ff603f831686015116810190508060e01b90508084526004840193505050611611565b5060038606600181146116a457600281146116b4576116bf565b613d3d60f01b60028303526116bf565b603d60f81b60018303525b508484525050819450505050505b919050565b6116ec828260405180602001604052806000815250611a38565b5050565b6116f9826119c2565b611738576040517f08c379a000000000000000000000000000000000000000000000000000000000815260040161172f90613087565b60405180910390fd5b8060066000848152602001908152602001600020908051906020019061175f929190611e27565b505050565b6001816000016000828254019250508190555050565b8173ffffffffffffffffffffffffffffffffffffffff168373ffffffffffffffffffffffffffffffffffffffff1614156117e9576040517f08c379a00000000000000000000000000000000000000000000000000000000081526004016117e0906130f3565b60405180910390fd5b80600560008573ffffffffffffffffffffffffffffffffffffffff1673ffffffffffffffffffffffffffffffffffffffff16815260200190815260200160002060008473ffffffffffffffffffffffffffffffffffffffff1673ffffffffffffffffffffffffffffffffffffffff16815260200190815260200160002060006101000a81548160ff0219169083151502179055508173ffffffffffffffffffffffffffffffffffffffff168373ffffffffffffffffffffffffffffffffffffffff167f17307eab39ab6107e8899845ad3d59bd9653f200f220920489ca2b5937696c31836040516118da9190611f7e565b60405180910390a3505050565b6118f2848484611131565b6118fe84848484611a93565b61193d576040517f08c379a000000000000000000000000000000000000000000000000000000000815260040161193490613185565b60405180910390fd5b50505050565b606060405180602001604052806000815250905090565b606061196582610f90565b600061196f611943565b9050600081511161198f57604051806020016040528060008152506119ba565b8061199984611398565b6040516020016119aa929190612d29565b6040516020818303038152906040525b915050919050565b60008073ffffffffffffffffffffffffffffffffffffffff166002600084815260200190815260200160002060009054906101000a900473ffffffffffffffffffffffffffffffffffffffff1673ffffffffffffffffffffffffffffffffffffffff1614159050919050565b505050565b505050565b611a428383611c2a565b611a4f6000848484611a93565b611a8e576040517f08c379a0000000000000000000000000000000000000000000000000000000008152600401611a8590613185565b60405180910390fd5b505050565b6000611ab48473ffffffffffffffffffffffffffffffffffffffff16611e04565b15611c1d578373ffffffffffffffffffffffffffffffffffffffff1663150b7a02611add610fdb565b8786866040518563ffffffff1660e01b8152600401611aff94939291906131fa565b602060405180830381600087803b158015611b1957600080fd5b505af1925050508015611b4a57506040513d601f19601f82011682018060405250810190611b47919061325b565b60015b611bcd573d8060008114611b7a576040519150601f19603f3d011682016040523d82523d6000602084013e611b7f565b606091505b50600081511415611bc5576040517f08c379a0000000000000000000000000000000000000000000000000000000008152600401611bbc90613185565b60405180910390fd5b805181602001fd5b63150b7a0260e01b7bffffffffffffffffffffffffffffffffffffffffffffffffffffffff1916817bffffffffffffffffffffffffffffffffffffffffffffffffffffffff191614915050611c22565b600190505b949350505050565b600073ffffffffffffffffffffffffffffffffffffffff168273ffffffffffffffffffffffffffffffffffffffff161415611c9a576040517f08c379a0000000000000000000000000000000000000000000000000000000008152600401611c91906132d4565b60405180910390fd5b611ca3816119c2565b15611ce3576040517f08c379a0000000000000000000000000000000000000000000000000000000008152600401611cda90613340565b60405180910390fd5b611cef60008383611a2e565b6001600360008473ffffffffffffffffffffffffffffffffffffffff1673ffffffffffffffffffffffffffffffffffffffff1681526020019081526020016000206000828254611d3f9190612ed4565b92505081905550816002600083815260200190815260200160002060006101000a81548173ffffffffffffffffffffffffffffffffffffffff021916908373ffffffffffffffffffffffffffffffffffffffff160217905550808273ffffffffffffffffffffffffffffffffffffffff16600073ffffffffffffffffffffffffffffffffffffffff167fddf252ad1be2c89b69c2b068fc378daa952ba7f163c4a11628f55a4df523b3ef60405160405180910390a4611e0060008383611a33565b5050565b6000808273ffffffffffffffffffffffffffffffffffffffff163b119050919050565b828054611e33906124bc565b90600052602060002090601f016020900481019282611e555760008555611e9c565b82601f10611e6e57805160ff1916838001178555611e9c565b82800160010185558215611e9c579182015b82811115611e9b578251825591602001919060010190611e80565b5b509050611ea99190611ead565b5090565b5b80821115611ec6576000816000905550600101611eae565b5090565b6000604051905090565b600080fd5b600080fd5b60007fffffffff0000000000000000000000000000000000000000000000000000000082169050919050565b611f1381611ede565b8114611f1e57600080fd5b50565b600081359050611f3081611f0a565b92915050565b600060208284031215611f4c57611f4b611ed4565b5b6000611f5a84828501611f21565b91505092915050565b60008115159050919050565b611f7881611f63565b82525050565b6000602082019050611f936000830184611f6f565b92915050565b600081519050919050565b600082825260208201905092915050565b60005b83811015611fd3578082015181840152602081019050611fb8565b83811115611fe2576000848401525b50505050565b6000601f19601f8301169050919050565b600061200482611f99565b61200e8185611fa4565b935061201e818560208601611fb5565b61202781611fe8565b840191505092915050565b6000602082019050818103600083015261204c8184611ff9565b905092915050565b6000819050919050565b61206781612054565b811461207257600080fd5b50565b6000813590506120848161205e565b92915050565b6000602082840312156120a05761209f611ed4565b5b60006120ae84828501612075565b91505092915050565b600073ffffffffffffffffffffffffffffffffffffffff82169050919050565b60006120e2826120b7565b9050919050565b6120f2816120d7565b82525050565b600060208201905061210d60008301846120e9565b92915050565b61211c816120d7565b811461212757600080fd5b50565b60008135905061213981612113565b92915050565b6000806040838503121561215657612155611ed4565b5b60006121648582860161212a565b925050602061217585828601612075565b9150509250929050565b60008060006060848603121561219857612197611ed4565b5b60006121a68682870161212a565b93505060206121b78682870161212a565b92505060406121c886828701612075565b9150509250925092565b6000602082840312156121e8576121e7611ed4565b5b60006121f68482850161212a565b91505092915050565b61220881612054565b82525050565b600060208201905061222360008301846121ff565b92915050565b61223281611f63565b811461223d57600080fd5b50565b60008135905061224f81612229565b92915050565b6000806040838503121561226c5761226b611ed4565b5b600061227a8582860161212a565b925050602061228b85828601612240565b9150509250929050565b600080fd5b600080fd5b7f4e487b7100000000000000000000000000000000000000000000000000000000600052604160045260246000fd5b6122d782611fe8565b810181811067ffffffffffffffff821117156122f6576122f561229f565b5b80604052505050565b6000612309611eca565b905061231582826122ce565b919050565b600067ffffffffffffffff8211156123355761233461229f565b5b61233e82611fe8565b9050602081019050919050565b82818337600083830152505050565b600061236d6123688461231a565b6122ff565b9050828152602081018484840111156123895761238861229a565b5b61239484828561234b565b509392505050565b600082601f8301126123b1576123b0612295565b5b81356123c184826020860161235a565b91505092915050565b600080600080608085870312156123e4576123e3611ed4565b5b60006123f28782880161212a565b94505060206124038782880161212a565b935050604061241487828801612075565b925050606085013567ffffffffffffffff81111561243557612434611ed9565b5b6124418782880161239c565b91505092959194509250565b6000806040838503121561246457612463611ed4565b5b60006124728582860161212a565b92505060206124838582860161212a565b9150509250929050565b7f4e487b7100000000000000000000000000000000000000000000000000000000600052602260045260246000fd5b600060028204905060018216806124d457607f821691505b602082108114156124e8576124e761248d565b5b50919050565b7f4552433732313a20617070726f76616c20746f2063757272656e74206f776e6560008201527f7200000000000000000000000000000000000000000000000000000000000000602082015250565b600061254a602183611fa4565b9150612555826124ee565b604082019050919050565b600060208201905081810360008301526125798161253d565b9050919050565b7f4552433732313a20617070726f76652063616c6c6572206973206e6f7420746f60008201527f6b656e206f776e6572206e6f7220617070726f76656420666f7220616c6c0000602082015250565b60006125dc603e83611fa4565b91506125e782612580565b604082019050919050565b6000602082019050818103600083015261260b816125cf565b9050919050565b7f4552433732313a2063616c6c6572206973206e6f7420746f6b656e206f776e6560008201527f72206e6f7220617070726f766564000000000000000000000000000000000000602082015250565b600061266e602e83611fa4565b915061267982612612565b604082019050919050565b6000602082019050818103600083015261269d81612661565b9050919050565b600081905092915050565b7f46495253545f574f524400000000000000000000000000000000000000000000600082015250565b60006126e5600a836126a4565b91506126f0826126af565b600a82019050919050565b600061270682611f99565b61271081856126a4565b9350612720818560208601611fb5565b80840191505092915050565b6000612737826126d8565b915061274382846126fb565b915081905092915050565b7f4e487b7100000000000000000000000000000000000000000000000000000000600052601260045260246000fd5b600061278882612054565b915061279383612054565b9250826127a3576127a261274e565b5b828206905092915050565b7f4e487b7100000000000000000000000000000000000000000000000000000000600052603260045260246000fd5b60006127e982866126fb565b91506127f582856126fb565b915061280182846126fb565b9150819050949350505050565b60008190508160005260206000209050919050565b60008154612830816124bc565b61283a81866126a4565b94506001821660008114612855576001811461286657612899565b60ff19831686528186019350612899565b61286f8561280e565b60005b8381101561289157815481890152600182019150602081019050612872565b838801955050505b50505092915050565b7f3c2f746578743e3c2f7376673e00000000000000000000000000000000000000600082015250565b60006128d8600d836126a4565b91506128e3826128a2565b600d82019050919050565b60006128fa8285612823565b915061290682846126fb565b9150612911826128cb565b91508190509392505050565b7f7b226e616d65223a202200000000000000000000000000000000000000000000600082015250565b6000612953600a836126a4565b915061295e8261291d565b600a82019050919050565b7f222c20226465736372697074696f6e223a20224120686967686c79206163636c60008201527f61696d656420636f6c6c656374696f6e206f6620737175617265732e222c202260208201527f696d616765223a2022646174613a696d6167652f7376672b786d6c3b6261736560408201527f36342c0000000000000000000000000000000000000000000000000000000000606082015250565b6000612a116063836126a4565b9150612a1c82612969565b606382019050919050565b7f227d000000000000000000000000000000000000000000000000000000000000600082015250565b6000612a5d6002836126a4565b9150612a6882612a27565b600282019050919050565b6000612a7e82612946565b9150612a8a82856126fb565b9150612a9582612a04565b9150612aa182846126fb565b9150612aac82612a50565b91508190509392505050565b7f646174613a6170706c69636174696f6e2f6a736f6e3b6261736536342c000000600082015250565b6000612aee601d836126a4565b9150612af982612ab8565b601d82019050919050565b6000612b0f82612ae1565b9150612b1b82846126fb565b915081905092915050565b6000604082019050612b3b60008301856120e9565b612b4860208301846121ff565b9392505050565b7f4552433732313a20696e76616c696420746f6b656e2049440000000000000000600082015250565b6000612b85601883611fa4565b9150612b9082612b4f565b602082019050919050565b60006020820190508181036000830152612bb481612b78565b9050919050565b7f4552433732313a2061646472657373207a65726f206973206e6f74206120766160008201527f6c6964206f776e65720000000000000000000000000000000000000000000000602082015250565b6000612c17602983611fa4565b9150612c2282612bbb565b604082019050919050565b60006020820190508181036000830152612c4681612c0a565b9050919050565b7f5345434f4e445f574f5244000000000000000000000000000000000000000000600082015250565b6000612c83600b836126a4565b9150612c8e82612c4d565b600b82019050919050565b6000612ca482612c76565b9150612cb082846126fb565b915081905092915050565b7f54484952445f574f524400000000000000000000000000000000000000000000600082015250565b6000612cf1600a836126a4565b9150612cfc82612cbb565b600a82019050919050565b6000612d1282612ce4565b9150612d1e82846126fb565b915081905092915050565b6000612d3582856126fb565b9150612d4182846126fb565b91508190509392505050565b7f4552433732313a207472616e736665722066726f6d20696e636f72726563742060008201527f6f776e6572000000000000000000000000000000000000000000000000000000602082015250565b6000612da9602583611fa4565b9150612db482612d4d565b604082019050919050565b60006020820190508181036000830152612dd881612d9c565b9050919050565b7f4552433732313a207472616e7366657220746f20746865207a65726f2061646460008201527f7265737300000000000000000000000000000000000000000000000000000000602082015250565b6000612e3b602483611fa4565b9150612e4682612ddf565b604082019050919050565b60006020820190508181036000830152612e6a81612e2e565b9050919050565b7f4e487b7100000000000000000000000000000000000000000000000000000000600052601160045260246000fd5b6000612eab82612054565b9150612eb683612054565b925082821015612ec957612ec8612e71565b5b828203905092915050565b6000612edf82612054565b9150612eea83612054565b9250827fffffffffffffffffffffffffffffffffffffffffffffffffffffffffffffffff03821115612f1f57612f1e612e71565b5b828201905092915050565b6000612f3582612054565b91507fffffffffffffffffffffffffffffffffffffffffffffffffffffffffffffffff821415612f6857612f67612e71565b5b600182019050919050565b6000612f7e82612054565b9150612f8983612054565b925082612f9957612f9861274e565b5b828204905092915050565b6000612fb082846126fb565b915081905092915050565b6000612fc682612054565b9150612fd183612054565b9250817fffffffffffffffffffffffffffffffffffffffffffffffffffffffffffffffff048311821515161561300a57613009612e71565b5b828202905092915050565b7f45524337323155524953746f726167653a2055524920736574206f66206e6f6e60008201527f6578697374656e7420746f6b656e000000000000000000000000000000000000602082015250565b6000613071602e83611fa4565b915061307c82613015565b604082019050919050565b600060208201905081810360008301526130a081613064565b9050919050565b7f4552433732313a20617070726f766520746f2063616c6c657200000000000000600082015250565b60006130dd601983611fa4565b91506130e8826130a7565b602082019050919050565b6000602082019050818103600083015261310c816130d0565b9050919050565b7f4552433732313a207472616e7366657220746f206e6f6e20455243373231526560008201527f63656976657220696d706c656d656e7465720000000000000000000000000000602082015250565b600061316f603283611fa4565b915061317a82613113565b604082019050919050565b6000602082019050818103600083015261319e81613162565b9050919050565b600081519050919050565b600082825260208201905092915050565b60006131cc826131a5565b6131d681856131b0565b93506131e6818560208601611fb5565b6131ef81611fe8565b840191505092915050565b600060808201905061320f60008301876120e9565b61321c60208301866120e9565b61322960408301856121ff565b818103606083015261323b81846131c1565b905095945050505050565b60008151905061325581611f0a565b92915050565b60006020828403121561327157613270611ed4565b5b600061327f84828501613246565b91505092915050565b7f4552433732313a206d696e7420746f20746865207a65726f2061646472657373600082015250565b60006132be602083611fa4565b91506132c982613288565b602082019050919050565b600060208201905081810360008301526132ed816132b1565b9050919050565b7f4552433732313a20746f6b656e20616c7265616479206d696e74656400000000600082015250565b600061332a601c83611fa4565b9150613335826132f4565b602082019050919050565b600060208201905081810360008301526133598161331d565b905091905056fe4142434445464748494a4b4c4d4e4f505152535455565758595a6162636465666768696a6b6c6d6e6f707172737475767778797a303132333435363738392b2fa26469706673582212200380b97245c86fed2b8803c5617041af16fe951f48757fe81450f05cc4c6981c64736f6c634300080900333c73766720786d6c6e733d27687474703a2f2f7777772e77332e6f72672f323030302f73766727207072657365727665417370656374526174696f3d27784d696e594d696e206d656574272076696577426f783d273020302033353020333530273e3c7374796c653e2e62617365207b2066696c6c3a2077686974653b20666f6e742d66616d696c793a2073657269663b20666f6e742d73697a653a20323470783b207d3c2f7374796c653e3c726563742077696474683d273130302527206865696768743d2731303025272066696c6c3d27626c61636b27202f3e3c7465787420783d273530252720793d273530252720636c6173733d27626173652720646f6d696e616e742d626173656c696e653d276d6964646c652720746578742d616e63686f723d276d6964646c65273e",
  "linkReferences": {},
  "deployedLinkReferences": {}
}